:020000040800F2
:10000000D8180020090100084977000813010008EA
:10001000BD760008E515000809E4000800000000AE
:100020000000000000000000000000001B010008AC
:1000300025180008000000001F01000875D6000800
:100040002301000823010008230100082301000800
:10005000230100082301000833180008791800085C
:100060008718000895180008A31800082301000845
:1000700023010008230100082301000823010008D0
:1000800023010008230100082301000823010008C0
:10009000230100082301000823010008B11800080B
:1000A00000000000230100082301000823010008CC
:1000B0002301000823010008230100082301000890
:1000C0002301000823010008230100082301000880
:1000D0002301000845E100082301000855E100085C
:1000E00041180008B9930008230100082301000803
:1000F00023010008DFF80CD000F0FAFC00480047AC
:10010000A9F20008D8180020064880470648004792
:10011000FEE7FEE7FEE7FEE7FEE7FEE7FEE7FEE7B7
:10012000FEE7FEE7D5D70008F500000840EA010326
:100130009B0703D009E008C9121F08C0042AFAD29D
:1001400003E011F8013B00F8013B521EF9D2704761
:10015000D2B201E000F8012B491EFBD27047002209
:10016000F6E710B513460A4604461946FFF7F0FFB6
:10017000204610BD30B505460020034600E05B1C5C
:10018000934205D2EC5CC85C201A01D1002CF6D158
:1001900030BD70B506460EF0D5F9046805460A2252
:1001A0000021304600F07CFB2C6070BDF0B480EA8A
:1001B0000102D40F4200B2EB410F02D202460846C0
:1001C00011464A0042D0C30DDDB2C1F3C752AD1A89
:1001D000202D35DAC1F3160141F4000204B1524278
:1001E000C5F1200602FA06F12A411044B3EBD05FB4
:1001F00023D0C4B1012DA0EBC35009DCF0BC4FF0FB
:10020000004202EAC352DBB200F5000000F089BBF5
:10021000400000F1807000EBC350A0F1807040EA14
:10022000D170490009E0490841EAC071A0EBC35010
:1002300000F50000400800EBC350F0BC00F068BBC4
:100240006142012202EB4101001BF6E7F0BC70475E
:1002500081F00041AAE780F00040A7E780EA0102B0
:1002600010B502F00043400022D04A001FD0010E1A
:1002700001EB1261C0F35600C2F3560240F40000D5
:1002800042F40002A0FB022000047F39140400D0D5
:10029000401C50EA124001D44000491EC2B20C0674
:1002A00004EBD010401C4008802A02D003E000205C
:1002B00010BD20F00100002900DA0020184310BD15
:1002C00030B480EA010202F0004530F0004221F033
:1002D000004013D090B1C30DD40DC2F31601C0F38A
:1002E0001600E41A41F4000140F400027D3491420A
:1002F00001D3641C00E04900002C02DA30BC00206D
:1003000070474FF400000023914201D3891A034340
:1003100040084FEA4101F7D151B1914202D14FF06B
:10032000004105E002D24FF0010101E06FF0010150
:1003300003EBC450284430BC00F0EABA2DE9FE4F6C
:10034000804681EA0300C00F0C46009021F0004176
:1003500023F00045B8EB0200A94105D240462146F2
:1003600090461C460B46024623F00040104347D0FF
:10037000270DC7F30A00C3F30A510290401A0190F7
:1003800040286BDAC3F3130040F4801B00989246B8
:1003900020B10023D2EB030A63EB0B0B0198594603
:1003A000C0F14002504600F04AFA06460D4650465B
:1003B0005946019A00F062FA10EB080061410024EE
:1003C00087EA115284EAE7731A4340D0009A62B375
:1003D000019A012A4FEA075215DC001B61EB02016A
:1003E0004FF0004202EA0752CDE90042001C41F5FD
:1003F000801132462B4600F0D1FA03B0BDE8F08FF1
:1004000040462146F9E7001B61EB0201001C41F563
:10041000801300185B412018A2F5001747EB030179
:1004200040EAD570B6196D4111E06D084FEA360605
:1004300045EAC0754FEA0752001B61EB0201001C40
:1004400041F5801149084FEA300000195141324608
:100450002B4603B0BDE8F04F00F091BA009801229E
:1004600040000023D0EB020263EBE07300982146CA
:100470004FEAE074B8EB000061EB0401E9E783F0B8
:1004800000435BE781F0004158E72DE9FE4F81EA28
:10049000030404F0004421F0004100944FF0000BED
:1004A00023F0004350EA01045ED052EA03045BD01B
:1004B000C3F30A54C1F30A552C44A4F2F334019453
:1004C000A0FB0254C1F3130141F48011C3F31303E1
:1004D00043F4801301FB024400FB034E840A970A95
:1004E00044EA815447EA8357A4FB076802958D0AC2
:1004F00005FB07854FEA932C04FB0C542705029D4E
:100500004FEA065847EA1637B5EB08056EEB070CBD
:10051000870E920E47EA811742EA8312A7FB020177
:10052000B6EB0B0164EB00042B0D43EA0C335E18B1
:1005300044EB1C50DA465146E7FB0201C5F31304B5
:100540004FEA0B3343EA14534FEA0432019C43EA67
:100550000603A4F10C040294009CCDE900B400F061
:100560001DFA03B0BDE8F08F00200146F9E72DE940
:10057000F04D81EA030404F0004B21F000451446DD
:100580004FF0000A23F0004150EA050220D054EA5F
:1005900001021DD0C5F30A570246C5F31303C1F388
:1005A0001300C1F30A5640F4801543F48013A7EBFF
:1005B0000608101BD64608F2FD3873EB050002D37F
:1005C00008F1010801E092185B41B8F1000F03DA6D
:1005D00000200146BDE8F08D00204FF48011064652
:1005E00084460EE0171B73EB050705D3121B63EB64
:1005F000050306434CEA010C49084FEA3000921803
:100600005B4150EA0107EDD152EA030012D082EAC1
:10061000040083EA0501084305D0101BAB4106D254
:100620000122002306E000224FF0004302E06FF0B9
:10063000010253101AEB06004CEB085110EB0A00B4
:1006400041EB0B01BDE8F04D00F099B99623002273
:10065000114600F066B90EB5C10F80EAE07008449B
:10066000CA07002140F233438DE80E000A460B46CC
:1006700000F094F903B000BD0EB540F23341029191
:100680000021CDE900110A460B4600F087F903B0BE
:1006900000BD20F00040C10DC0F3160040F4000082
:1006A0007F2901DA00207047962903DCC1F1960109
:1006B000C840704796398840704770B5C1F30A52F8
:1006C00001F000450024C1F3130140F2FF3341F46F
:1006D00080119A4201DA002070BD40F233439A4201
:1006E000A2F2334203DC524200F0B8F800E090403E
:1006F0002C43F1D0404270BDC1F30A5210B5C1F392
:10070000130140F2FF3341F480119A4201DA0020D4
:1007100010BD40F233439A42A2F2334203DC52420C
:1007200000F09CF810BD904010BD00F0004230F089
:1007300000400AD0C10D01F56071C0F3160042EA15
:100740000151C2084007114370470020014670471D
:1007500030B5041E71F1000404DB4FF00044404248
:1007600064EB0101141E73F1000405DB1C464FF01D
:100770000043524263EB04038B4208BF824230BD08
:1007800030B5041E71F1000404DB4FF00044404218
:1007900064EB0101141E73F1000405DB1C464FF0ED
:1007A0000043524263EB0403994208BF904230BDBC
:1007B00030B50B46014600202022012409E021FA31
:1007C00002F59D4205D303FA02F5491B04FA02F52E
:1007D0002844151EA2F10102F1DC30BD2DE9F05FC5
:1007E0000546002092469B468846064681464024A0
:1007F0001BE0284641464746224600F02FF8534664
:100800005A46C01A914110D311461846224600F0AC
:1008100016F82D1A67EB01084F46224601200021E9
:1008200000F00DF817EB00094E41201EA4F1010461
:10083000DFDC484631462A464346BDE8F09F202A81
:1008400004DB203A00FA02F1002070479140C2F127
:10085000200320FA03F3194390407047202A04DB59
:10086000203A21FA02F00021704721FA02F3D04029
:10087000C2F120029140084319467047202A06DB46
:10088000CB17203A41FA02F043EAE07306E041FA5E
:1008900002F3D040C2F1200291400843194670474C
:1008A0002DE9F04791460F4680460446002614F88D
:1008B000015B2DB100F02EF90068405DC007F6D154
:1008C0002B2D02D02D2D18D0641E4A4639462046C5
:1008D00000F024F927B13968A14201D1C7F800809E
:1008E00071054FF002040BD54042002803DD0DF0E6
:1008F00029FE0460A007BDE8F08746F48066E4E7BF
:100900000028F8DA0DF01EFE04606FF00040F2E7F8
:100910000029A8BF7047401C490008BF20F0010013
:10092000704710B4B0FA80FC00FA0CF050EA0104F1
:1009300004BF10BC704749B1CCF1200421FA04F483
:1009400011FA0CF118BF012121430843A3EB0C015C
:10095000CB1D4FEA00614FEA102042BF002010BCBF
:10096000704700EBC35010440029A4BF10BC70476F
:10097000401C490008BF20F0010010BC704710B5B2
:10098000141E73F1000408DA401C41F100019218B2
:100990005B411A4301D120F0010010BD2DE9F04D5B
:1009A00092469B4611B1B1FA81F202E0B0FA80F2B0
:1009B00020329046FFF743FF04460F4640EA0A0004
:1009C00041EA0B0153465A46084313D0114653EAF5
:1009D000010019D0C8F140025046FFF73FFF05461D
:1009E0000E46504659464246FFF729FF084305D0B8
:1009F000012004E020463946BDE8F08D0020054383
:100A000046EAE0762C4337430A986305E40AA0EBF4
:100A100008000022FD0A44EA47540A3002D50020AB
:100A20000146E9E7010510196941DDE908450019AA
:100A30006941BDE8F04DA2E72DE9F041054621F0FE
:100A400000400C46284309D0C4F30A5040F2334119
:100A5000884205DD28462146BDE8F0812846FBE7AF
:100A600040F2FE31884210DC0CDB4FEA043040EAF1
:100A7000155050EA053105D0104804F000410143FB
:100A80000020E9E700200146E6E7A0F233404642B5
:100A9000C6F1400228462146FFF7D1FE07468846A8
:100AA000284621463246FFF7D9FE43463A46FFF72D
:100AB00066FF3246BDE8F041FFF7C1BE0000F03FDF
:100AC000C1F30A52C1F3130140F2FF3341F4801124
:100AD0009A4202DA00200146704740F233439A42BC
:100AE000A2F2334202DC5242FFF7B8BEFFF7A7BEC4
:100AF000064C074D06E0E06840F0010394E807006B
:100B000098471034AC42F6D3FFF7F8FAF0FF00082C
:100B10001000010800487047ECFF00082DE9F05F65
:100B200082460078002715468B460AF10104B94633
:100B3000302801D09DB113E014F8010B012778286B
:100B400003D0582801D045B10AE00DB1102D07D1CE
:100B50000027102514F8010B02E0082500E00A2503
:100B60000026B0460EE005FB080005FB06F1012754
:100B700001EB10461FFA80F8B6F5803F00D3B94666
:100B800014F8010B294600F018F80028EBDABBF145
:100B9000000F05D00FB1641E00E05446CBF80040B2
:100BA000B9F1000F06D00DF0CDFC02210160C81E86
:100BB000BDE8F09F48EA0640FAE73A2800D230380C
:100BC00020F02002412A01D3A2F13700884201D34C
:100BD0004FF0FF30704730B58C1810F8012B12F031
:100BE0000F0301D110F8013B120906D110F8012BB7
:100BF00003E010F8015B01F8015B5B1EF9D101E035
:100C000001F8013B521EFBD1A142E6D3002030BDCA
:100C100070B50446002520680068C0F38010F0B16C
:100C20002068806820F001002168886002F0FCFAEA
:100C300005460EE002F0F8FA401B022809D9E06CE4
:100C400040F01000E064206D40F0010020650120BC
:100C500070BD20680068C0F380100028EAD1002031
:100C6000F6E7000038B50446002500200090206813
:100C70000068C0F3801090BB2068806840F00100DD
:100C800021688860174800681749B0FBF1F000EB55
:100C90004000009002E00098401E0090009800285C
:100CA000F9D102F0C1FA054613E002F0BDFA401B8B
:100CB00002280ED9E06C40F01000E064206D40F096
:100CC0000100206500BF002084F8480000BF01201B
:100CD00038BD20680068C0F380100028E5D00020EF
:100CE000F6E700004C00002040420F0030B589B00C
:100CF00005460C461022002105A80EF025FC2246D0
:100D000005A905A80EF093F89DF8140000F08000E6
:100D1000E8B100BF00200AE005A9095C4A0005AB64
:100D2000411C595C42EAE11105AA1154401C0F28EC
:100D3000F2DB9DF823104906090E8DF8231000BF41
:100D40009DF8230080F087008DF8230016E000BF97
:100D500000200AE005A9095C4A0005AB411C595C6A
:100D600042EAE11105AA1154401C0F28F2DB9DF85C
:100D700023104906090E8DF8231000BFD4F8140182
:100D800010280FD100BF002009E004F20111095C16
:100D900005AA125C514004F201121154401C1028A3
:100DA000F3DB5DE09DF8140000F08000E8B100BFC7
:100DB00000200AE005A9095C4A0005AB411C595C0A
:100DC00042EAE11105AA1154401C0F28F2DB9DF8FC
:100DD00023104906090E8DF8231000BF9DF823004B
:100DE00080F087008DF8230016E000BF00200AE0A5
:100DF00005A9095C4A0005AB411C595C42EAE111B6
:100E000005AA1154401C0F28F2DB9DF82310490657
:100E1000090E8DF8231000BF802104F20110D4F8D0
:100E20001421815405E0002104F20110D4F81421AA
:100E30008154D4F81401401CC4F814011028F2D3D2
:100E400000BF002009E004F20111095C05AA125C50
:100E5000514004F201121154401C1028F3DB00BF72
:100E600000BF00200AE004F1F101095C04F2011264
:100E7000125C514004F1F1021154401C1028F2DBC5
:100E800000BF102204F1F10101A80EF043FB22463D
:100E9000294601A80DF0CBFF1022002105A80EF075
:100EA00053FB09B030BD10B504461022002104F1F7
:100EB000F1000EF049FB0020C4F81401F0220021DB
:100EC00020460EF041FB10BD70B504460D4622468B
:100ED000102128460DF0D8FF70BD2DE9FF410446D2
:100EE0000F461546D4F8140100283BD0D4F814015D
:100EF000C0F11000A84204D2D4F81401C0F11000CF
:100F000000E028460646B2B204F20111D4F81431CA
:100F1000581839460EF0FEFAD4F814013044C4F8DB
:100F20001401D4F81401102801D3B54201D1BDE851
:100F3000FF8100BF00200AE004F1F101095C04F226
:100F40000112125C514004F1F1021154401C1028AE
:100F5000F2DB00BF224604F1F10108460DF067FF05
:100F60003744AD1B21E000BF002008E004F1F1018F
:100F7000095C3A5C514004F1F1021154401C102804
:100F8000F4DB00BF102204F1F10168460EF0C2FA52
:100F90002246694668460DF04AFF1022694604F170
:100FA000F1000EF0B7FA1037103D102DDBD8AAB2C1
:100FB000394604F201100EF0ADFAC4F8145100BF26
:100FC000B5E700000021014A117070476001002060
:100FD00070B504460D460648007840B90120044922
:100FE00008702946204600F01FF800F003F870BD95
:100FF0006001002010B500210A488160C160416293
:10100000C16281634FF0206141630021C1634FF4ED
:10101000806141610121816200218161C16101F032
:1010200033FE10BDE80200207CB505460C46104892
:101030001049086000BF1048006840F400700E4975
:1010400008600846006800F40070019000BF00BF0F
:10105000084801F07FFD601C40B10020009003466D
:10106000032221460190284600F0A4FC7CBD00002C
:1010700000240140E8020020203802407FB50646E7
:101080000C4600200190029003900025012090FA68
:10109000A0F1B1FA81F13A4A42F8210000BF2020C4
:1010A000022191FAA1F1B1FA81F108430121B1EBDA
:1010B000601F02D13348006802E0324834300068D3
:1010C0002021022292FAA2F2B2FA82F2114301F036
:1010D0001F020121914008400028E0D000BF2948AC
:1010E0002030006840F4007026492031086008462E
:1010F000006800F40070009000BF00BF0194012060
:1011000002900620039001A91F4801F037FC1E48F9
:101110000068806840F001001B49096888601A482F
:1011200001F0F9FE4FF0FF31174801F095FE164827
:1011300001F0A6FD85B214480068806820F0010027
:101140001149096888600198102802D00198112877
:1011500002D10D4801F0FEFC0A482030006820F45E
:1011600000700849203108600020012191FAA1F1A6
:10117000B1FA81F1024A42F82100284604B070BD5C
:101180000000474200380240E802002070B50446E3
:101190000D4605480078012804D129462046FFF76E
:1011A0006DFF70BD0020FCE760010020F0B5034634
:1011B0000C46012562480078C0F18000C1B2981E3B
:1011C00009287DD2DFE800F0051329374D6A8290A7
:1011D0009E005C480078884208DA5A480678007811
:1011E000401C584F3870584883550025A1E0481ED0
:1011F000544E3678B0420FDD524806780078401CD5
:10120000504F387050488355384606780078401C57
:1012100038704D48845500258BE04A480078884254
:1012200008DA484806780078401C464F387046482F
:10123000835500257DE0481E424E3678B0420FDDD2
:10124000404806780078401C3E4F38703E48835531
:10125000384606780078401C38703B488455002595
:1012600067E0881E374E3678B04216DD354806787E
:101270000078401C334F3870334883553846067821
:101280000078401C3870304884553846067800781D
:10129000401C38702C48825500254AE0481E294ED3
:1012A0003678B04211DD274806780078401C254F7B
:1012B000387025488355384606780078401C00E091
:1012C00035E0387020488455002532E01D4800780C
:1012D000884208DA1B4806780078401C194F38709D
:1012E00019488355002524E016480078884208DA1A
:1012F000144806780078401C124F38701248835505
:10130000002516E00F48007888420FDA0D4806786D
:101310000078401C0B4F38700B48835538460678D0
:101320000078401C387008488455002501E00220F0
:10133000F0BD00BF15B90120044E30702846F7E714
:101340009400002093000020260C00209200002032
:1013500010B50446012C01D109F050FE014804707B
:1013600010BD00003D0000202DE9F05F00251D4864
:1013700006880027002402211B48FFF707FF0746C5
:101380003046FFF763F9824616497839B1F878009C
:10139000FFF75CF983461549FEF760FF8146514629
:1013A000FEF78EFF8046FFF774F985B23846FFF7E7
:1013B0004DF983460E49FEF783FF81462846FFF725
:1013C00045F982464946FEF749FF8046FFF761F935
:1013D00084B204EB8400032190FBF1F084B2204638
:1013E000BDE8F09F7800F81F5403002000404E45F0
:1013F00000F07F4510B50748FFF7E4FD06480BF005
:10140000B9FF0AF0CBF800210348543800F084FCFF
:1014100010BD0000540300204813002072B603489A
:101420000078401C01490870704700002E00002021
:1014300004480078401E034908700846007800B947
:1014400062B670472E00002010B50024FFF78CFF15
:101450001B49088000F086FA00B92FE01848008880
:1014600041F23601884201DBFE2427E0144800885F
:10147000B0F5486F14DD1248008841F23601884209
:101480000EDA0F480088A0F5486000EB4001C1EB80
:10149000002040F2B63190FBF1F0401CC4B20DE0E8
:1014A0000748008840F61C41884206DD0448008851
:1014B000B0F5486F01DC012400E0FF24204610BD98
:1014C000300000200EB527480078C8B902F0BEF9F8
:1014D0000CF0D6F80A230922002123480CF020FF43
:1014E00000200090019003464FF4E1320221029067
:1014F0001D480CF053FE09F029FD00F06BF801E0E7
:101500000CF010F902211948FFF762FD012117487C
:10151000FFF75EFD1C211548FFF75AFD4FF0FF3025
:10152000052306220721009011480BF0C1FF0AF0A5
:1015300075F8012000210B460246CDE9001061211B
:101540000B48543800F036FA0648007840B90120BC
:101550000449087000F006FA012801D100F080F873
:101560000EBD00002C000020CC03002054030020FE
:101570004813002000B585B00020009003460122EA
:101580000F21019002A800F015FA002000900346F8
:1015900001220C2101900D4800F00CFA002000906F
:1015A0000346012214210190094800F003FA00F0DB
:1015B00053FE04F067FC0121044800F0ADFB01215B
:1015C000034800F0A9FB05B000BD00003C0300206B
:1015D0004803002010B501F0F9FC01F0E3FC01F034
:1015E000EBFC10BD00BFFEE73EB504461448007892
:1015F0008DF80000134800788DF802008DF8034044
:10160000114800680CF02CF9019010480068029015
:101610000F4800788DF8010069460E48007807F001
:1016200054FF0A4800680C4909884843074909687B
:10163000401A0A4909680844084908603EBD00008C
:101640008A000020A4000020A8000020C400002080
:10165000A70000205800002098000020A0000020D3
:1016600010B50B48007890B90A490B480CF002F904
:101670004FF47A7108480CF0C9F907480CF0D0F91A
:1016800001E00CF091F9024800780028F9D010BD73
:101690002D000020F57700083C04002030B50246FC
:1016A000002300200AE001248440144001258540E5
:1016B000AC4201D15C1CE3B2441CE0B28842F2DBD4
:1016C000184630BD2DE9F84F0746884691461E461C
:1016D0004FF0000AD34600250020009051E000247E
:1016E00046E0009839F810000121A140084098B365
:1016F000281900EB400056F8200000B936E02FB959
:101700000120A04000F0070000B92FE0281900EBED
:10171000400006EB800090F908000211281900EB48
:10172000400006EB8000007A40F303014FFA88F096
:1017300008F0A2F900B919E0281900EB400006EB07
:101740008000417A0A9800EB0110C06828B10BF1C3
:10175000010000F0FF0B09E007E02819C2B2504673
:10176000411C01F0FF0A0B990A5400BF601CC4B26F
:10177000102CB6DB05F11000C5B20098401CC0B2B9
:101780000090102DABDB0C9880F800B05046BDE8FF
:10179000F88F00002DE9F84F044600261D48078801
:1017A0004FF00008002521461B48FFF7EFFC80465C
:1017B0003846FEF74BFF174978390090B1F87800AA
:1017C000FEF744FF83461549FEF748FD824600991F
:1017D000FEF776FD8146FEF75CFF86B24046FEF7D7
:1017E00035FF83460E49FEF76BFD82463046FEF715
:1017F0002DFF51460090FEF731FD8146FEF749FF6F
:1018000085B205EB8500032190FBF1F085B22846F7
:10181000BDE8F88F7800F81F5403002000404E45C3
:1018200000F07F45704710B50446204601F0D8FB14
:1018300010BD10B509F0E2FB012001F0F5FB10BD71
:1018400010B509F0DBFB4FF4806001F0EDFB4FF4C5
:10185000006001F0E9FB4FF4805001F0E5FB4FF42C
:10186000005001F0E1FB4FF4804001F0DDFB4FF44C
:10187000004001F0D9FB10BD10B509F0BFFB0220FC
:1018800001F0D2FB10BD10B509F0B8FB042001F047
:10189000CBFB10BD10B509F0B1FB082001F0C4FB73
:1018A00010BD10B509F0AAFB102001F0BDFB10BD62
:1018B00010B509F0A3FB202001F0B6FB402001F099
:1018C000B3FB802001F0B0FB4FF4807001F0ACFB63
:1018D0004FF4007001F0A8FB10BD0023038043808B
:1018E00041600281704710B502461389481C90FB85
:1018F000F3F403FB140080B210BD70B504462188D8
:101900002046FFF7F0FF61680D5C21882046FFF755
:10191000EAFF2080284670BD70B504460D466188F8
:101920002046FFF7E0FF608061886068455470BD25
:1019300001460B4850F82100A0F5F430483840B17A
:10194000A0F5F430483830B1A0F57430903820B1AB
:1019500000BF002070470120FCE70220FAE70000EA
:101960000CFB0008002070470246002111E00B48E4
:1019700050F8310090420AD8084B481C53F8300008
:10198000904204D9184600EBC10000797047481C0A
:10199000C1B21529EBD300BFFEE7000090FB0008A1
:1019A000024600238A4201D1CBB201E0501EC3B2ED
:1019B00058B270472DE9FC4705460C4616461F46AF
:1019C000DDE90A890620B0EB241F07D33B463246E7
:1019D00021462846CDE9008900F002F8BDE8FC87E1
:1019E0002DE9F04387B004460E4615461F46DDE953
:1019F0000E982670701C10B907B0BDE8F0832078EF
:101A000000F00F01012088406080207800F0F00095
:101A100078B94748606000BF4648006840F0010060
:101A2000444908600846006800F00100019000BFCA
:101A30004EE0207800F0F00010280FD13E486060A2
:101A400000BF3C48006840F002003A490860084680
:101A5000006800F00200019000BF39E0207800F03B
:101A6000F00020280FD13548606000BF3148006881
:101A700040F004002F4908600846006800F00400A8
:101A8000019000BF24E0207800F0F00030280FD152
:101A90002B48606000BF2748006840F008002549D7
:101AA00008600846006800F00800019000BF0FE0E1
:101AB0002448606000BF1F48006840F020001D49B6
:101AC00008600846006800F02000019000BF00BFD9
:101AD0006088029084F80A90CDF81090022005905A
:101AE00015B90020039017E0032D02D103200390C5
:101AF00012E0022D09D1012F02D11220039001E042
:101B000002200390CDF8188006E0012F02D11120A9
:101B1000039001E001200390012D03D141462046AE
:101B200000F0C7F802A9606801F08CFA00BF63E713
:101B3000000002401C38024000040240000802403D
:101B4000000C0240001402402DE9F04385B0044629
:101B50000D4616461F464FF000084FF0060917B90C
:101B600005B0BDE8F08360880090012D02D14448A3
:101B7000019006E0022D02D14248019001E0424866
:101B80000190A07A0290022003906946606801F0FB
:101B900059FA052E0ED2DFE806F00304070A0E00FC
:101BA00000BF4FF0030809E04FF0020806E04FF0D5
:101BB000010803E000BF4FF0000800BF00BF6088CD
:101BC000B0F5807F3DD012DC102834D008DC01282D
:101BD00025D0022826D0042827D008283DD127E088
:101BE00020282BD040282AD0802836D128E0B0F5F4
:101BF000805F2CD009DCB0F5007F23D0B0F5806F7A
:101C000023D0B0F5006F28D120E0B0F5005F1FD0E1
:101C1000B0F5804F1DD0B0F5004F1ED11AE04FF047
:101C200006091BE04FF0070918E04FF0080915E01E
:101C30004FF0090912E04FF00A090FE000BF00BFA2
:101C400000BF00BF4FF0170908E000BF00BF00BF92
:101C500000BF00BF4FF0280900E000BF00BF2078A0
:101C600000F00F00094941F8207000224146484623
:101C700001F029FE484601F019FE00BF70E70000A0
:101C8000000011100000211000003110500400204D
:101C900010B504460CB1606800B900BF94F90000AB
:101CA000401C00B910BD6188606801F0B3FA00BF44
:101CB000F8E770B504460D460CB1606800B900BF86
:101CC00094F90000401C00B970BDEAB261886068F8
:101CD00001F0A4FA00BFF7E72DE9F04104460D46F4
:101CE00016461F4694F900000621B1EB201F05D3CC
:101CF0003B46324629462046FFF726FFBDE8F081E5
:101D000010B5044694F900000621B1EB201F02D360
:101D10002046FFF7BDFF10BD70B504460D4694F98F
:101D200000000621B1EB201F03D329462046FFF710
:101D3000C0FF70BD2DE9F04790B04FF0000A09E0F8
:101D4000BD4810F80A0000F00F01BB4800F80A1067
:101D50000AF1010ABAF10A0FF2DBB7491339087D1B
:101D6000FEF78AFCCDE90C01B3491339C87CFEF7B4
:101D700083FC0022B14BCDE90801FEF786FBCDE9DB
:101D80000A01DDE90C23FEF7D9FA06460F46AA49F7
:101D90001339887DFEF770FCCDE90C01A649133993
:101DA000487DFEF769FC0022A44BCDE90801FEF74F
:101DB0006CFBCDE90A01DDE90C23FEF7BFFA804692
:101DC00089469D491339C87EFEF756FCCDE90C01C2
:101DD00099491339887EFEF74FFC0022974BCDE9D5
:101DE0000401FEF752FBCDE9080193491339487EFF
:101DF000FEF742FC0022924BCDE90001FEF745FBC5
:101E0000CDE904018C491339087EFEF735FC002228
:101E10008C4BCDE90001FEF738FBCDE90201DDE98D
:101E20000423FEF78BFACDE90601DDE90823FEF76E
:101E300085FACDE90A01DDE90C23FEF77FFA0446B5
:101E40000D46814A814B20462946FEF71EFB42463D
:101E50004B46CDE90801FEF771FA00227C4BCDE933
:101E60000A01FEF784FB32463B46CDE90C01FEF742
:101E700065FA784A03C270481338407F532807D167
:101E80000022754B734903C9FEF7FFFA714A03C27A
:101E90004FF0000A0BE068480C3010F80A0000F020
:101EA0000F0165480C3000F80A100AF1010ABAF176
:101EB0000A0FF0DB6049133991F82100FEF7DCFBD3
:101EC000CDE90C015C49133991F82000FEF7D4FBF1
:101ED00000225A4BCDE90401FEF7D7FACDE90801FB
:101EE00055491339C87FFEF7C7FB0022544BCDE993
:101EF0000401FEF7CAFACDE90601DDE90823FEF781
:101F00001DFACDE90A01DDE90C23FEF717FA0646B2
:101F10000F464949133991F82300FEF7ADFBCDE98F
:101F20000C014549133991F82200FEF7A5FB002268
:101F3000424BCDE90801FEF7A8FACDE90A01DDE937
:101F40000C23FEF7FBF9804689463B49133991F88B
:101F50002600FEF791FB0022394BCDE90801FEF780
:101F600094FACDE90C013449133991F82500FEF7B4
:101F700083FB0022334BCDE90801FEF786FACDE959
:101F80000A01DDE90C23FEF7D9F904460D462A497A
:101F9000133991F82800FEF76FFBCDE90C012649B3
:101FA000133991F82700FEF767FB0022234BCDE998
:101FB0000801FEF76AFACDE90A01DDE90C23FEF714
:101FC000BDF9CDE90E0120462946DDE90E23FEF7D5
:101FD000B5F91D4A1D4BCDE90601FEF756FA002260
:101FE0001B4BCDE90801FEF7C2FA0022184BCDE9E0
:101FF0000C0140464946FEF7BAFA32463B46CDE967
:102000000801FEF79BF9CDE90A01DDE90C23FEF793
:1020100095F9124A03C20848133890F82A00572845
:1020200007D100220C4B0D4903C9FEF72EFA0B4ACB
:1020300003C210B0BDE8F0878314002000002440E4
:102040000000594000408F402D431CEBE2361A3F00
:1020500000004E40700100200000F0BF7801002019
:102060002DE9F041002213462F4903C9FEF788FBF2
:1020700014D84FF040422D4B2B4903C9FEF705FA07
:1020800004460D4600222A4B20462946FEF76FFAE9
:102090000646FEF712FB2749086013E00022234B97
:1020A0005B1C214903C9FEF7F0F904460D460022E6
:1020B0001F4B20462946FEF75AFA0646FEF7FDFA60
:1020C0001C490860002213461B4903C9FEF758FB50
:1020D00014D84FF04042154B174903C9FEF7D5F904
:1020E00004460D460022154B20462946FEF73FFACE
:1020F0000646FEF7E2FA1249086013E000220B4B95
:102100005B1C0D4903C9FEF7C0F904460D460022C9
:102110000A4B20462946FEF72AFA0646FEF7CDFA74
:1021200007490860BDE8F08170010020FFFF5F41B2
:102130000080564080010020780100200080664029
:102140008401002010B5052214491548FEF712F845
:1021500068B9134991F82C10302901DD012100E004
:1021600000210846FEF777FA0E4A03C211E0052265
:102170000D490B48FDF7FEFF58B90949497C412933
:1021800001D1012100E000210846FEF764FA054A6A
:1021900003C2FFF7CFFDFFF763FF10BD40FC00084F
:1021A000701400206801002052FC000810B5FFF7F1
:1021B00035F900220B4B0C4903C9FEF7C9FA06D1C9
:1021C0000A48FDF7E6FF00B20949088003E04FF036
:1021D000FF3007490880FFF72BF90548B0F90000E8
:1021E00010BD00000000F03F68010020A71400208F
:1021F0008801002070B504460D46002600220A4BD7
:102200000A4903C9FEF7A4FA01D1012601E000F052
:1022100091FB074803C8C4E90001064803C8C5E9A3
:102220000001304670BD00000000F03F6801002052
:10223000700100207801002010B50024FFF7EEF8AF
:1022400004480478002003490870FFF7F1F820469D
:1022500010BD00009001002010B500200249087058
:1022600000F004F810BD0000900100200EB5002021
:102270001949087001201949087000200090034690
:1022800001220F2101901648FFF794FB00200090D7
:1022900003460246014601901248FFF78BFB124BA2
:1022A000002202210F48FFF717FD1048104948632C
:1022B00000F07AF81B231A2201210D480CF030F8A7
:1022C00000200090019003464FF416520121029025
:1022D00007480BF063FF0EBD3200002033000020E2
:1022E000100500201C050020A5230008312300084C
:1022F0000404002010B50B48007848B901200949B2
:102300000870094B002202210848FFF7E5FC08E0AD
:10231000002004490870044B002201210348FFF704
:10232000DBFC10BD33000020A52300081C050020A5
:1023300038B50446012C2DD1694617480BF0D8FF5B
:1023400040BB9DF80000242803D0144800787F2863
:1023500002DB0020114908709DF800100F48027838
:102360000078401C0D4B18700D4881549DF80000FA
:102370000A280FD10021184602780078401C1870F6
:102380000748815418460178054800F075F8002088
:10239000FEF7DEFF38BD00000404002032000020FC
:1023A000900400207047000010B501210148FFF79C
:1023B000B3FC10BD1005002010B500210148FFF747
:1023C000ABFC10BD100500202DE9F04706468846FD
:1023D0001746002500241EB117B1B8F1010F03DC28
:1023E0004FF0FF30BDE8F087705D242800D16D1CF0
:1023F00008E0705D6040C4B26D1C454502DB4FF0E3
:10240000FF30EFE7705D2A28F3D1A146E11704EB16
:102410001171C1F3071005F0B5F93870E11704EB3D
:1024200011710911A4EB0111C8B205F0ABF9787074
:10243000681CD7E7F8B505460E466A463146284679
:10244000FFF7C2FF0446002C01DA0020F8BDB01EE1
:10245000A04201DC0020F9E728579DF900108842CE
:1024600007D1601C28569DF90110884201D1012036
:10247000ECE70020EAE700002DE9F0410746884636
:102480000124002500263878242804D0FFF732FFE5
:102490000020BDE8F08141463846FFF7CBFF08B980
:1024A0000020F6E7002603E0062E01DD0020F0E71D
:1024B0003046711CCEB22044385C2C28F4D1002563
:1024C00006E0385DFC494855681CC5B2601CC4B2C2
:1024D000B542F6DB0522F949F748FDF74BFE002827
:1024E00072D1002603E00B2E01DD0020D1E730463B
:1024F000711CCEB22044385C2C28F4D1002507E0B2
:10250000395DED48801D4155681CC5B2601CC4B2E0
:10251000B542F5DB002603E00A2E01DD0020B8E716
:102520003046711CCEB22044385C2C28F4D10025F2
:1025300007E0395DE04813304155681CC5B2601CA6
:10254000C4B2B542F5DB002603E0022E01DD002017
:102550009FE73046711CCEB22044385C2C28F4D161
:10256000002507E0395DD4481D304155681CC5B2CF
:10257000601CC4B2B542F5DB002603E00B2E01DD82
:10258000002086E73046711CCEB22044385C2C28EF
:10259000F4D1002507E0395DC7481F304155681C5C
:1025A000C5B2601CC4B2B542F5DB002603E0022EC2
:1025B00001DD00206DE73046711CCEB22044385C4E
:1025C0002C28F4D1002508E0BCE0395DBA482A3057
:1025D0004155681CC5B2601CC4B2B542F5DB00268B
:1025E00003E0022E01DD002053E73046711CCEB21D
:1025F0002044385C2C28F4D1002507E0395DAE4832
:102600002C304155681CC5B2601CC4B2B542F5DB24
:10261000002603E0032E01DD00203AE73046711C5E
:10262000CEB22044385C2C28F4D1002507E0395D77
:10263000A1482E304155681CC5B2601CC4B2B542D9
:10264000F5DB002603E0062E01DD002021E7304601
:10265000711CCEB22044385C2C28F4D1002507E050
:10266000395D954831304155681CC5B2601CC4B213
:10267000B542F5DB002603E0082E01DD002008E767
:102680003046711CCEB22044385C2C28F4D1002591
:1026900007E0395D884837304155681CC5B2601C79
:1026A000C4B2B542F5DB002603E0022E01DD0020B6
:1026B000EFE63046711CCEB22044385C2C28F4D1B1
:1026C000002507E0395D7C483F304155681CC5B2A4
:1026D000601CC4B2B542F5DB002603E0082E01DD24
:1026E0000020D6E63046711CCEB22044385C2C283F
:1026F000F4D1002507E0395D6F4841304155681C31
:10270000C5B2601CC4B2B542F5DB002603E0022E60
:1027100001DD0020BDE63046711CCEB22044385C9D
:102720002C28F4D1002507E0395D63484930415534
:10273000681CC5B2601CC4B2B542F5DBFFF702FDF0
:102740000120A6E605225E495B48FDF713FD00283F
:1027500072D1002603E00B2E01DD002099E6304601
:10276000711CCEB22044385C2C28F4D1002507E03F
:10277000395D5148801D4155681CC5B2601CC4B20A
:10278000B542F5DB002603E0022E01DD002080E6E5
:102790003046711CCEB22044385C2C28F4D1002580
:1027A00007E0395D444811304155681CC5B2601CD2
:1027B000C4B2B542F5DB002603E00A2E01DD00209D
:1027C00067E63046711CCEB22044385C2C28F4D128
:1027D000002507E0395D384813304155681CC5B203
:1027E000601CC4B2B542F5DB002603E0022E01DD19
:1027F00000204EE63046711CCEB22044385C2C28B6
:10280000F4D1002507E0395D2B481D304155681C87
:10281000C5B2601CC4B2B542F5DB002603E00B2E46
:1028200001DD002035E63046711CCEB22044385C14
:102830002C28F4D1002508E077E0395D1E481F30D0
:102840004155681CC5B2601CC4B2B542F5DB002618
:1028500003E0022E01DD00201BE63046711CCEB2E3
:102860002044385C2C28F4D1002507E0395D12485B
:102870002A304155681CC5B2601CC4B2B542F5DBB4
:10288000002603E0082E01DD002002E63046711C20
:10289000CEB22044385C2C28F4D1002507E0395D05
:1028A00005484B304155681CC5B2601CC4B2B542E6
:1028B000F5DB00260AE000007014002040FC000850
:1028C00052FC0008082E01DD0020E2E53046711CB4
:1028D000CEB22044385C2C28F4D1002506E0395DC6
:1028E00013484155681CC5B2601CC4B2B542F6DB42
:1028F000002603E0082E01DD0020CAE53046711CE9
:10290000CEB22044385C2C28F4D1002507E0395D94
:10291000074808304155681CC5B2601CC4B2B542B6
:10292000F5DBFFF70FFC0120B3E50020B1E5000067
:10293000C31400204FF0FF30074908800021074AE8
:1029400011605160064A116051600020054908601D
:1029500005490860704700008801002070010020D0
:1029600078010020800100208401002010B5FFF7CD
:102970001BFD10BD10B5FFF71FFD10BD38B5024699
:1029800000230020009000BF92F84800012801D1E8
:10299000022038BD012082F8480000BF486807289F
:1029A00012D21068006C0C79641E04EB84051F249D
:1029B000AC40A0430D796D1E05EB85050C68AC405D
:1029C00020431468206453E048680D2812D2106830
:1029D000C06B0C79E41F04EB84051F24AC40A043BA
:1029E0000D79ED1F05EB85050C68AC40204314689C
:1029F000E0633DE04868132812D21068806B0C79C0
:102A00000D3C04EB84051F24AC40A0430D790D3D23
:102A100005EB85050C68AC4020431468A06327E0F3
:102A20004868192812D21068406B0C79133C04EBEB
:102A300084051F24AC40A0430D79133D05EB8505AB
:102A40000C68AC4020431468606311E01068006BB0
:102A50000C79193C04EB84051F24AC40A0430D798C
:102A6000193D05EB85050C68AC40204314682063D4
:102A700008680A2810D2106840690C7804EB4405F5
:102A80000724AC40A0430D7805EB45058C68AC40AD
:102A90002043146860612CE00868142812D2106882
:102AA00000690C780A3C04EB44050724AC40A043C1
:102AB0000D780A3D05EB45058C68AC402043146851
:102AC000206116E008681A2812D81068C0680C78CF
:102AD000143C04EB44050724AC40A0430D78143D9E
:102AE00005EB45058C68AC4020431468E06000E0CD
:102AF00000BF0868102802D0086811281DD11248AC
:102B0000006800F40000C0B90F48006840F40000FD
:102B10000D4C2060086810280FD10C4800680C4C40
:102B2000B0FBF4F000EB80004000009002E0009861
:102B3000401E009000980028F9D100BF002082F8C4
:102B4000480000BF184624E7042701404C0000203D
:102B500040420F0070B5044600250CB9012070BD3D
:102B6000E06C40F00200E0642046FEF751F80546B4
:102B7000002D76D16FF01F00216808602068406842
:102B80003B4908402168486020688068394908400E
:102B90002168886000BF2068C0686FF31400216856
:102BA000C8602068006900F0404021680861206822
:102BB000406900F0404021684861206880696FF3F7
:102BC0000B00216888612068C0696FF30B002168E1
:102BD000C8612068006A6FF30B00216808622068F2
:102BE000406A6FF30B00216848622068806A6FF3C7
:102BF0000B00216888622068C06A6FF30B002168AF
:102C0000C8622068006B1C4908402168086320687E
:102C1000406B00F04040216848632068806B00F002
:102C20004040216888632068C06B00F04040216804
:102C3000C8632068006C00F0404021680864206888
:102C4000406C6FF31500216848640C48006820F45C
:102C500000000A490860204600F0FCF800202065CA
:102C6000E06400BF002084F8480000BF284676E7F3
:102C700000003CF88CF0808000800FFE04270140AB
:102C800001460868806D7047F8B5044600270026A5
:102C900000250CB90120F8BD206910B1E06A00B12F
:102CA00000BF606B102800D000BFE06CA0B900200E
:102CB000206584F8480000BF6148006840F00100CA
:102CC0005F4908600846006800F00100009000BFFE
:102CD00000BF204600F0BFF8E06C00F010000028B4
:102CE00074D1E06C20F4885040F00200E064554854
:102CF000006820F440306168084352490860616907
:102D0000E06808434FF4007292FAA2F2B2FA82F23B
:102D1000E16B91400843216A0843022292FAA2F231
:102D2000B2FA82F2616A914008430543606B102851
:102D300003D0D4E90D010843054320680068C0F3BF
:102D4000801090BBA0690543E169A0680843216930
:102D5000B1F5807F02D02169012902D14FF4807141
:102D600000E0002108430643E06A012816D1606AAA
:102D700060B9206B401E4FF4604191FAA1F1B1FAA5
:102D800081F1884040F40060064307E0E06C40F0C9
:102D90002000E064206D40F001002065206840685C
:102DA00029490840304321684860206880682749E5
:102DB00008402843216888602069B0F5807F02D0F0
:102DC0002069012803D14FF4807001E035E0002034
:102DD000B0F5807F10D12068006B20F0F871A06AF8
:102DE000401E4FF0F87292FAA2F2B2FA82F29040CC
:102DF00001432068016305E02068006B20F0F87053
:102E0000216808632068806811490840A84208D1F9
:102E100000202065E06C20F0020040F00100E0643A
:102E20000CE0E06C20F0020040F01000E064206D47
:102E300040F001002065012700E0012738462AE71D
:102E40002038024004270140FF16FCFC8DF1FFC032
:102E5000FEFF80BF7047704770B504460D460026E0
:102E60002068806800F4806078B12068806800F491
:102E7000807050B1E06C40F02000E06400BF0020A2
:102E800084F8480000BF012070BD00F0CDF906466F
:102E900012E0681C80B125B100F0C6F9801BA84281
:102EA0000AD9E06C40F00400E06400BF002084F820
:102EB000480000BF0320E7E72068006800F0020038
:102EC0000028E6D0A06918B96FF0120021680860E8
:102ED000E06C40F40070E0642068806800F04050CE
:102EE000B8B9606AA8B92068006B00F0F87020B12A
:102EF0002068806800F4806058B9E06C20F480702D
:102F0000E064E06C00F4805018B9E06C40F001001F
:102F1000E0640020B8E770B50446002500BF94F8CF
:102F20004800012801D1022070BD012084F848002A
:102F300000BF2046FDF796FE054685BBE06C40F2DB
:102F40000161884340F48070E0642068406800F4C8
:102F5000806028B1E06C20F4005040F48050E064C0
:102F6000E06C00F4805020B1206D20F00600206558
:102F700001E00020206500BF002084F8480000BF69
:102F80006FF02200216808602068806800F04050DF
:102F900028B92068806840F0804021688860284611
:102FA000C2E700000348406840F001000149486062
:102FB00070470000002004E00348406840F004002F
:102FC0000149486070470000002004E00348406861
:102FD00040F002000149486070470000002004E012
:102FE00031B5002400F020F9044600BF00F01CF9C0
:102FF000001B00998842F9D338BD000070B5044623
:103000000025002C05DD02E06410681CC5B2012C0F
:10301000FAD1044850F8250018B1024951F82500AA
:10302000804770BD5004002010B504460448006875
:10303000204020B1024804602046FFF7DFFF10BDAA
:103040001404014078B50346002200240020CAE0A1
:10305000012696400D6805EA0604002C71D04D68E3
:10306000022D02D04D68122D13D1D60803F1200590
:1030700055F826005507EE0E0F25B540A843560714
:10308000F60E0D69B5402843D60803F1200545F832
:103090002600186856000325B540A8430D7905F0B1
:1030A00003055600B540284318604D68012D08D02F
:1030B0004D68022D05D04D68112D02D04D68122D9E
:1030C00013D1986856000325B540A8435600CD6833
:1030D000B54028439860586801259540A8430D796C
:1030E000C5F30015954028435860D868560003255D
:1030F000B540A84356008D68B5402843D8604D6858
:1031000005F08055B5F1805F6CD100BF394D2D6859
:1031100045F00105374E356035462D6805F001054F
:10312000009500BF00BF344D960855F8260095075E
:103130002E0F0F25B540A843304DAB4202D10025DC
:1031400015E04FE02E4DAB4201D101250FE02D4D92
:10315000AB4201D102250AE02B4DAB4201D1032540
:1031600005E02A4DAB4201D1042500E00525960774
:10317000360FB5402843204D960845F82600244DCB
:103180002868A0434D6805F48035B5F5803F00D12F
:1031900020431F4D28602D1D2868A0434D6805F46D
:1031A0000035B5F5003F00D12043194D2D1D286095
:1031B0002D1D2868A0434D6805F48015B5F5801FC6
:1031C00000D12043124D083528602D1D2868A043EA
:1031D0004D6805F40015B5F5001F00D120430C4DD6
:1031E0000C352860521C0D68D540002D7FF430AF9F
:1031F00078BD000020380240080001400000024075
:103200000004024000080240000C0240001002408E
:103210000004014042694A40426170470AB181613D
:1032200001E00B04836170470148006870470000AB
:103230005000002070B50446002600250CB901207E
:1032400070BD94F83D0028B9002084F83C00204669
:1032500000F0F2FA00F03AFE05465048854201D2ED
:103260000120EDE7242084F83D002068006820F06C
:103270000100216808604A48B5FBF0F62068406804
:1032800020F03F003043216848604649606888422A
:1032900001D8701C07E04FF4967070434FF47A71B8
:1032A000B0FBF1F0401C2168096A21F03F0108439E
:1032B000216808623B49606888420ED86068400017
:1032C000B5FBF0F0C0F30B00042801D204202DE080
:1032D00060684000B5FBF0F028E0A06828B960689D
:1032E00000EB4000B5FBF0F008E0606800EBC001C7
:1032F00001EB0010B5FBF0F040F48040C0F30B0090
:1033000008B9012012E0A06828B9606800EB40000D
:10331000B5FBF0F008E0606800EBC00101EB0010C5
:10332000B5FBF0F040F4804040F400402168C969EA
:103330004CF6FF72914308432168C861D4E9070144
:1033400008432168096821F0C0010843216808602A
:10335000D4E9031008432168896848F2FF32914399
:10336000084321688860D4E9050108432168C968D9
:1033700021F0FF0108432168C8602068006840F020
:1033800001002168086000202064202084F83D00AE
:103390000020206384F83E0000BF51E780841E00B7
:1033A00040420F00A08601002DE9FC5F04468946DB
:1033B00092469B46DDE90C860E9F0025FFF734FF01
:1033C000054694F83D00202871D1B8F1000F00D0D7
:1033D00016B90120BDE8FC9F192301224FF002110C
:1033E0002046009502F001FB08B10220F2E700BF81
:1033F00094F83C00012801D10220EBE7012084F879
:103400003C0000BF2068006800F0010028B9206877
:10341000006840F00100216808602068006820F41E
:10342000006021680860222084F83D00402084F874
:103430003E0000202064C4F8248066859948E0623C
:10344000608D20855B46524649462046CDE9007591
:1034500002F084F980B1206C042806D100BF00205E
:1034600084F83C0000BF0120B4E700BF002084F8CE
:103470003C0000BF0320ADE7208D012818D1206853
:10348000006820F480602168086000BF002001907F
:1034900020684069019020688069019000BF00BFEA
:1034A0002068006840F400702168086025E0F7E0BB
:1034B000208D022816D12068006820F480602168E1
:1034C00008602068006840F400602168086000BF60
:1034D0000020019020684069019020688069019077
:1034E00000BF0AE000BF0020019020684069019001
:1034F00020688069019000BF00BFC2E0208D0328D2
:1035000071D8208D01281AD12A463946204602F06A
:1035100000FB30B1206C202801D103205AE70120A4
:1035200058E720680069C1B2626A501C606211707D
:10353000208D401E2085608D401E6085A1E0022EFA
:103540002AD13B46002258492046009502F04DFA08
:1035500008B103203EE72068006840F4007021684D
:10356000086020680069C1B2626A501C6062117014
:10357000208D401E2085608D401E6085206800697A
:10358000C1B2626A501C60621170208D401E20859D
:10359000608D401E608574E03B4600224249204613
:1035A000009502F022FA08B1032013E720680068B2
:1035B00020F480602168086020680069C1B2626AF6
:1035C000501C60621170208D401E2085608D401E51
:1035D00060853B46002234492046009502F005FAFA
:1035E00010B10320F6E620E02068006840F4007087
:1035F0002168086020680069C1B2626A501C60627C
:103600001170208D401E2085608D401E60852068D1
:103610000069C1B2626A501C60621170208D401E48
:103620002085608D401E60852BE02A463946204665
:1036300002F06FFA30B1206C202801D10320C9E6D6
:103640000120C7E620680069C1B2626A501C60624E
:103650001170208D401E2085608D401E6085206881
:103660004069C0F3800060B120680069C1B2626A3D
:10367000501C60621170208D401E2085608D401EA0
:103680006085208D00287FF439AF202084F83D002C
:10369000002084F83E0000BF84F83C0000BF99E69B
:1036A000022097E60000FFFF040001002DE9FC5F07
:1036B0000446894692469B46DDE90D780C9E00251E
:1036C000FFF7B2FD054694F83D0020287ED106B1F3
:1036D00017B90120BDE8FC9F192301224FF0021108
:1036E0002046009502F081F908B10220F2E700BF00
:1036F00094F83C00012801D10220EBE7012084F876
:103700003C0000BF2068006800F0010028B9206874
:10371000006840F00100216808602068006820F41B
:10372000006021680860212084F83D00402084F872
:103730003E0000202064666267853E48E062608D3E
:1037400020855B46524649462046CDE9008502F079
:10375000B1F880B1206C042806D100BF002084F8A5
:103760003C0000BF0120B5E700BF002084F83C000A
:1037700000BF0320AEE733E02A464146204602F070
:10378000FFF960B1206C042807D12068006840F47C
:1037900000702168086001209CE703209AE7616AB5
:1037A000481C6062087821680861208D401E2085D1
:1037B000608D401E608520684069C0F3800078B14C
:1037C000208D68B1616A481C606200E02FE00878D3
:1037D00021680861208D401E2085608D401E608517
:1037E000208D0028C8D12A464146204602F0D2F852
:1037F00060B1206C042807D12068006840F4007094
:1038000021680860012065E7032063E720680068FD
:1038100040F4007021680860202084F83D000020FA
:1038200084F83E0000BF84F83C0000BF52E702204D
:1038300050E700000000FFFF7047000002480068EA
:10384000401C0149086070475000002010B503205B
:1038500000F078F8002000F005F800F017F80020DC
:1038600010BD000070B50446074800684FF47A7137
:10387000B0FBF1F5284601F025FD00222146501E3F
:1038800000F021F8002070BD4C00002070470000BF
:1038900000BF00F01F0201219140034A430942F892
:1038A000231000BF7047000080E100E000BF00F07F
:1038B0001F02012191404209920002F1E022C2F868
:1038C000001100BF70472DE9F05F80460D46164697
:1038D000002703F03BFF074639462A46334601F0EE
:1038E0000700C0F1070ABAF1040F02D94FF0040A29
:1038F00001E0C0F1070AD14600F1040ABAF1070F4E
:1039000002D24FF0000A01E0A0F1030AD4464FF0C2
:10391000010A0AFA09FAAAF1010A0AEA020A0AFAEB
:103920000CFA4FF0010B0BFA0CFBABF1010B0BEA9D
:10393000030B4AEA0B042146404603F00FFFBDE8A3
:10394000F09F000000BF00F00702064B19684FF619
:10395000FF031940044B0B4343EA0221014B19605A
:1039600000BF70470CED00E00000FA050120810265
:1039700091FAA1F1B1FA81F1014A42F821007047B0
:1039800000000E420120410291FAA1F1B1FA81F149
:10399000014A42F82100704700000E4202480068C8
:1039A00000F4C0507047000000700040002010215B
:1039B00091FAA1F1B1FA81F1014A42F82100704770
:1039C00000000E420D4A126822F0030202430B4B24
:1039D0001A600B4A126842F00402094B1A6001296E
:1039E00001D130BF02E040BF20BF20BF044A1268AF
:1039F00022F00402024B1A60704700000070004081
:103A000010ED00E0F8B5044600260025207800F00F
:103A1000010000287ED0207800F0010000B100BF36
:103A200000276A48006800F0805070B900BF6748FE
:103A3000006840F08050654908600846006800F062
:103A40008050009000BF00BF01276148006800F46B
:103A50008070B0B95E48006840F480705C490860CE
:103A6000FFF7E2FB064606E0FFF7DEFB801B64285B
:103A700001D90320F8BD5648006800F48070002882
:103A8000F2D052482438006800F0C045606800F069
:103A9000C040A8420DD0606800F44030B0F5403F0F
:103AA00007D14A482438006800F4003008B10120EA
:103AB000E0E746481030006800F44035002D59D04A
:103AC000606800F44030A84254D0207800F0010033
:103AD00078B33E481030006820F440350121C80515
:103AE00090FAA0F0B0FA80F03A4A02EB8000C0F8F9
:103AF000801600214FF4000090FAA0F0B0FA80F098
:103B000002EB8000C0F8801630481030056005F4E4
:103B1000807000E057E060B1FFF786FB064609E0E1
:103B2000FFF782FB801B41F28831884202D90320D3
:103B3000A0E71FE04020C10091FAA1F1B1FA81F1A4
:103B400008430121B1EB601F03D1204824380068ED
:103B500002E01E48103000684021CA0092FAA2F22A
:103B6000B2FA82F2114301F01F0201219140084094
:103B70000028D5D000BF00BF606800F44030B0F529
:103B8000403F0BD111482438006820F0C0406168E4
:103B900001F0C04108430D492439086000BF0B48BB
:103BA00010300068616801F4403108430749103162
:103BB000086000BF012F05D10448006820F0805044
:103BC0000249086000BF002054E70000243802408A
:103BD000007000400000474270B504460D460026C4
:103BE000B348006800F00100A84218D200BF012DC0
:103BF00005D1AF48006840F00400AD490860AC480A
:103C0000006820F001002843A949086000BF084669
:103C1000006800F00100A84201D0012070BD2078AA
:103C200000F00200022807D1A248006820F0F0004E
:103C3000A16808439F490860207800F0010000282F
:103C40007BD06068022821D12020010391FAA1F1E4
:103C5000B1FA81F108430121B1EB601F03D195480E
:103C60000838006802E093482C30006820210A03DD
:103C700092FAA2F2B2FA82F2114301F01F0201217C
:103C80009140084000286CD10120C7E760680328F4
:103C900020D12020010591FAA1F1B1FA81F1084368
:103CA0000121B1EB601F03D182480838006802E0AF
:103CB00080482C30006820210A0592FAA2F2B2FA5C
:103CC00082F2114301F01F02012191400840A8BB7C
:103CD0000120A3E76068012820D12020022191FA69
:103CE000A1F1B1FA81F108430121B1EB601F03D1C9
:103CF00070480838006802E06E482C3000682021C7
:103D0000022292FAA2F2B2FA82F2114301F01F02E9
:103D100001219140084088B901207FE7202001015E
:103D200091FAA1F1B1FA81F108430121B1EB601FD1
:103D300005D160480838006804E069E011E05D489A
:103D40002C30006820210A0192FAA2F2B2FA82F223
:103D5000114301F01F0201219140084008B90120E0
:103D60005CE75448006820F003006168084351494B
:103D70000860FFF759FA06466068022810D108E08B
:103D8000FFF752FA801B41F28831884201D90320A3
:103D900044E74848006800F00C000828F0D137E0FC
:103DA0006068032810D108E0FFF73EFA801B41F25B
:103DB0008831884201D9032030E73E48006800F08E
:103DC0000C000C28F0D123E06068012810D108E035
:103DD000FFF72AFA801B41F28831884201D903207B
:103DE0001CE73448006800F00C000428F0D10FE014
:103DF00008E0FFF719FA801B41F28831884201D9A7
:103E000003200BE72B48006800F00C000028F0D1DD
:103E10002748006800F00100A84218D900BF012D12
:103E200005D12348006840F004002149086020487B
:103E3000006820F0010028431D49086000BF0846C3
:103E4000006800F00100A84201D00120E6E62078D9
:103E500000F00400042807D11648006820F4E06050
:103E6000E168084313490860207800F0080008283A
:103E700008D11048006820F46050216940EAC10070
:103E80000C49086000F04EF80A49096801F0F00199
:103E9000F02292FAA2F2B2FA82F2D140064A515CC2
:103EA000C840064908600020FFF7DCFC0020B5E6AA
:103EB000003C024008380240C9FA00084C000020CB
:103EC00001480068704700004C00002000B5FFF773
:103ED000F7FF0749096801F4E0614FF4E06292FAE4
:103EE000A2F2B2FA82F2D140024A515CC84000BD4F
:103EF00008380240D9FA000800B5FFF7E1FF07498A
:103F0000096801F460514FF4605292FAA2F2B2FAD9
:103F100082F2D140024A515CC84000BD08380240DC
:103F2000D9FA0008F0B50021002300240022002562
:103F30000020254E316801F00C067EB3042E04D01B
:103F4000082E04D00C2E2AD103E020483AE0204865
:103F500038E001F470164FF4701797FAA7F7B7FA24
:103F600087F7FE401B4FBB5D01F440064FF440074E
:103F700097FAA7F7B7FA87F7FE40741C124E366817
:103F800006F4803626B1124E5E43B6FBF4F203E02F
:103F90000E4E5E43B6FBF4F2104613E000E000BFA5
:103FA000094E361F366806F460464FF4604797FAAC
:103FB000A7F7B7FA87F726FA07F56E1C0127B7406F
:103FC000F80300BF00BFF0BD083802400024F40031
:103FD000001BB700C0FA0008F8B504460025207899
:103FE00000F00100002879D0F748006800F00C00CC
:103FF00008280CD0F448006800F00C000C282BD1E5
:10400000F148006800F48030B0F5803F24D12020D2
:10401000010391FAA1F1B1FA81F108430121B1EB59
:10402000601F03D1E8480838006802E0E6482C30F9
:10403000006820210A0392FAA2F2B2FA82F2114336
:1040400001F01F020121914008400028CBD0606898
:10405000002843D10120F8BD00BF6068012808D1C5
:10406000D9480838006840F48030D74908390860DA
:104070002DE0606868B9D4480838006820F48030C2
:10408000D149083908600846006820F4802008609B
:104090001DE0606805280DD1CB480838006840F461
:1040A0008020C949083908600846006840F480301B
:1040B00008600CE0C4480838006820F48030C24929
:1040C000083908600846006820F48020086000BFB6
:1040D000606860B3FFF7A8F8054607E052E0FFF715
:1040E000A3F8401B642801D90320B4E72020010372
:1040F00091FAA1F1B1FA81F108430121B1EB601FFE
:1041000003D1B1480838006802E0AF482C3000689D
:1041100020210A0392FAA2F2B2FA82F2114301F0CC
:104120001F020121914008400028D8D02AE0FFF763
:104130007BF8054606E0FFF777F8401B642801D9B5
:10414000032088E72020010391FAA1F1B1FA81F15F
:1041500008430121B1EB601F03D19B480838006878
:1041600002E099482C30006820210A0392FAA2F25A
:10417000B2FA82F2114301F01F020121914008407E
:104180000028D8D1207800F00200022845D18E48BE
:10419000006800F00C0004280AD08B48006800F08A
:1041A0000C000C283BD18848006800F48030A8BB84
:1041B0002020022191FAA1F1B1FA81F108430121F5
:1041C000B1EB601F03D180480838006802E07E48E8
:1041D0002C3000682021022292FAA2F2B2FA82F276
:1041E000114301F01F0201219140084020B1E06815
:1041F000012801D001202EE77348001F006820F439
:10420000F8504FF4F85292FAA2F2B2FA82F221690F
:10421000914008436C49091F08607DE0FFE7E068B2
:10422000F0B3012090FAA0F1B1FA81F1674A42F8A7
:104230002100FEF7F9FF054606E0FEF7F5FF401BFB
:10424000022801D9032006E72020022191FAA1F1DA
:10425000B1FA81F108430121B1EB601F03D15A4843
:104260000838006802E058482C30006820210222FB
:1042700092FAA2F2B2FA82F2114301F01F02012176
:10428000914008400028D8D04F48001F006820F413
:10429000F8504FF4F85292FAA2F2B2FA82F200E029
:1042A00006E02169914008434749091F086033E04F
:1042B0000020012191FAA1F1B1FA81F1434A42F8BB
:1042C0002100FEF7B1FF054606E0FEF7ADFF401BFB
:1042D000022801D90320BEE62020022191FAA1F193
:1042E000B1FA81F108430121B1EB601F03D13648D7
:1042F0000838006802E034482C300068202102228F
:1043000092FAA2F2B2FA82F2114301F01F020121E5
:10431000914008400028D8D1207800F010001028E3
:1043200073D12948006800F00C0000286ED12020CD
:10433000010191FAA1F1B1FA81F108430121B1EB38
:10434000601F03D120480838006802E01E482C3066
:10435000006820210A0192FAA2F2B2FA82F2114315
:1043600001F01F0201219140084018B1A06908B96D
:10437000012070E61449091F206A096801F46041B0
:10438000884225D9206A04F0C3FF08B1012062E603
:104390000D48001F006820F46040216A08430A4964
:1043A000091F08600846006820F07F404FF07F42F8
:1043B00092FAA2F2B2FA82F2E1699140084302490C
:1043C000091F086023E0000008380240000047424F
:1043D000FC48006820F46040216A0843F9490860FD
:1043E0000846006820F07F404FF07F4292FAA2F228
:1043F000B2FA82F2E16991400843F2490860206A0A
:1044000004F086FF18B1012025E6A5E01FE04FF477
:10441000604191FAA1F1B1FA81F1206AC840401CD3
:1044200001218140C803E749091D096801F0F00135
:10443000F02292FAA2F2B2FA82F2D140E24A515C40
:10444000C840E24908600020FFF70CFA84E0A06948
:10445000F0B30120010291FAA1F1B1FA81F1DC4A35
:1044600042F82100FEF7E0FE054606E0FEF7DCFE1E
:10447000401B022801D90320EDE52020010191FA1B
:10448000A1F1B1FA81F108430121B1EB601F03D121
:10449000CC48001F006802E0CA4830300068202184
:1044A0000A0192FAA2F2B2FA82F2114301F01F025B
:1044B0000121914008400028D8D0C248006820F46B
:1044C0006040216A0843BF4908600846006800E070
:1044D0000DE020F07F404FF07F4292FAA2F2B2FA54
:1044E00082F2E16991400843B649086034E0002057
:1044F0004FF4807191FAA1F1B1FA81F1B44A42F816
:104500002100FEF791FE054606E0FEF78DFE401BFA
:10451000022801D903209EE52020010191FAA1F192
:10452000B1FA81F108430121B1EB601F03D1A54825
:10453000001F006802E0A3483030006820210A0113
:1045400092FAA2F2B2FA82F2114301F01F020121A3
:10455000914008400028D8D1207800F008000828B1
:104560006ED16069A8B3012090FAA0F1B1FA81F18F
:10457000974A02EB8101C1F88006FEF755FE054619
:1045800006E0FEF751FE401B022801D9032062E538
:104590004020022191FAA1F1B1FA81F108430121F1
:1045A000B1EB601F03D18748001F006802E0854817
:1045B000303000684021022292FAA2F2B2FA82F26E
:1045C000114301F01F020121914008400028D8D07A
:1045D00036E0FFE70021012090FAA0F0B0FA80F069
:1045E0007B4A02EB8000C0F88016FEF71DFE0546F0
:1045F00006E0FEF719FE401B022801D903202AE538
:104600004020022191FAA1F1B1FA81F10843012180
:10461000B1EB601F03D16B48001F006802E06948DE
:10462000303000684021022292FAA2F2B2FA82F2FD
:10463000114301F01F020121914008400028D8D108
:10464000207800F00400042875D100265D48203051
:10465000006800F0805080B900BF5A4820300068E0
:1046600040F080505749203108600846006800F04B
:104670008050009000BF00BF01265648006800F43B
:104680008070B0B95348006840F4807051490860A8
:10469000FEF7CAFD054606E0FEF7C6FD401B64288E
:1046A00001D90320D7E44B48006800F4807000284B
:1046B000F2D000BFA068012808D14248303000681D
:1046C00040F480703F49303108602DE0A06868B93F
:1046D0003C483030006820F480703A49303108603E
:1046E0000846006820F4806008601DE0A068052886
:1046F0000DD134483030006840F4806031493031A9
:1047000008600846006840F4807008600CE02D489E
:104710003030006820F480702A4930310860084643
:10472000006820F48060086000BFA06870B3FEF7E6
:104730007BFD054609E06AE0FEF776FD401B41F28D
:104740008831884201D9032085E44020C10091FAD4
:10475000A1F1B1FA81F108430121B1EB601F03D14E
:104760001848001F006802E01648303000684021F9
:10477000CA0092FAA2F2B2FA82F2114301F01F02C9
:104780000121914008400028D6D035E0FEF74CFDCD
:10479000054608E0FEF748FD401B41F2883188429B
:1047A00001D9032057E44020C10091FAA1F1B1FAE8
:1047B00081F108430121B1EB601F0DD10148001FB9
:1047C00000680BE004380240C9FA00084C000020E1
:1047D00000004742007000406C4800684021CA0059
:1047E00092FAA2F2B2FA82F2114301F01F02012101
:1047F000914008400028CDD1012E07D163481038E0
:10480000006820F0805061491039086000BF606A7C
:10481000F0B35E482C38006800F00C000C287AD009
:10482000606A022879D100204FF0807191FAA1F1DD
:10483000B1FA81F1564A42F82100FEF7F5FC05462F
:1048400006E0FEF7F1FC401B022801D9032002E438
:104850002020010591FAA1F1B1FA81F1084301216B
:10486000B1EB601F03D149483438006801E0474884
:10487000006820210A0592FAA2F2B2FA82F21143EC
:1048800001F01F020121914008400028D9D100E029
:104890007AE0D4E90A010843216B08433B492C39EB
:1048A000096821F47D01084338492C39086001204A
:1048B000010691FAA1F1B1FA81F1354A42F82100DD
:1048C000FEF7B2FC054606E0FEF7AEFC401B0228F0
:1048D00001D9032009E42020010591FAA1F1B1FAE0
:1048E00081F108430121B1EB601F03D1274834381F
:1048F000006801E02548006820210A0592FAA2F22A
:10490000B2FA82F2114301F01F02012191400840E6
:104910000028D9D038E035E0FFE700214FF0807063
:1049200090FAA0F0B0FA80F0194A42F82010FEF791
:104930007BFC054606E0FEF777FC401B022801D908
:10494000032058E42020010591FAA1F1B1FA81F188
:1049500008430121B1EB601F03D10C4834380068D3
:1049600001E00A48006820210A0592FAA2F2B2FA90
:1049700082F2114301F01F020121914008400028FA
:10498000D9D101E0012036E4002034E4343802407B
:1049900000004742704770B50446002500BF207FE5
:1049A000012801D1022070BD0120207700BF022024
:1049B000607700BFCA20216848625320216848629E
:1049C00000BF2068806820F48060216888602068CB
:1049D000806820F4804021688860FEF725FC054649
:1049E00012E0FEF721FC401BB0F57A7F0CD900BF26
:1049F000FF202168486200BF0320607700BF0020CD
:104A0000207700BF0320CEE72068C068C0F3800095
:104A10000028E6D000BFFF202168486200BF0120C7
:104A2000607700BF0020207700BF00BFBBE7704762
:104A300010B5044620688068C0F3003078B1206863
:104A4000C068C0F3002050B12046FFF7F0FF206897
:104A5000C06800F0800060F4C0702168C860206801
:104A60008068C0F3403078B12068C068C0F340204F
:104A700050B12046FFF78EFF2068C06800F080002C
:104A800060F420702168C8604FF40030024908606B
:104A90000120607710BD00001404014070B5044689
:104AA0000D46002600BF207F012801D1022070BDE5
:104AB0000120207700BF0220607700BFCA20216854
:104AC000486253202168486200BFB5F5807F29D134
:104AD0002068806820F48070216888602068806881
:104AE00020F4805021688860FEF79EFB064612E0A5
:104AF000FEF79AFB801BB0F57A7F0CD900BFFF2030
:104B00002168486200BF0320607700BF0020207743
:104B100000BF0320CBE72068C06800F00100002838
:104B2000E6D028E02068806820F400702168886062
:104B30002068806820F4005021688860FEF774FBCC
:104B4000064612E0FEF770FB801BB0F57A7F0CD9A9
:104B500000BFFF202168486200BF0320607700BFCC
:104B60000020207700BF0320A1E72068C068C0F3C1
:104B700040000028E6D000BFFF202168486200BF47
:104B80000120607700BF0020207700BF00BF8EE7C4
:104B90002DE9F04106460C46174698460025B7F524
:104BA000807F05D14FF48070A0613068C56904E052
:104BB0004FF40070A0613068056AC5F305402070AD
:104BC000C5F30620607005F07F00A07005F480003A
:104BD000000CE070C5F30560207505F08040206191
:104BE00005F08030E060B8F1000F0FD1207804F0BC
:104BF000F9FB2070607804F0F5FB6070A07804F099
:104C0000F1FBA070207D04F0EDFB20750020BDE8D5
:104C1000F081000070B505460B4616460024286852
:104C200040680E4900EA0104200CD870C4F3042047
:104C3000587004F03F009870C4F3423018705EB9A9
:104C4000D87804F0CFFBD870587804F0CBFB5870BC
:104C5000987804F0C7FB9870002070BD3FFFFF00FC
:104C60002DE9F04106460C461746002530680068DD
:104C70000F4900EA0105C5F305402070C5F3062081
:104C8000607005F07F00A07005F48000000CE070FB
:104C90005FB9207804F0A6FB2070607804F0A2FBD6
:104CA0006070A07804F09EFBA0700020BDE8F08149
:104CB0007F7F7F0010B504460CB9012010BD607FD6
:104CC00020B900202077204600F04EF802206077BF
:104CD00000BFCA202168486253202168486200BF93
:104CE000204604F097FB40B100BFFF2021684862D6
:104CF00000BF042060770120E0E720688068194940
:104D00000840216888602169606808436169084338
:104D1000216889680843216888602168E068086123
:104D200020680169208941EA004021680861206803
:104D3000C06820F080002168C8602068006C20F402
:104D40008020216808642068006CA16908432168FC
:104D5000086400BFFF202168486200BF012060771F
:104D60000020ABE7BFFF8FFF704700002DE9F04741
:104D700004460D4616460027B84600BF207F01288E
:104D800002D10220BDE8F0870120207700BF022079
:104D900060774EBB2068806800F0400000B102E000
:104DA0000020E87000BF286900B900E000BF287843
:104DB00004F023FB4FEA0049687804F01EFB49EA3F
:104DC0000029A87804F019FB49EA0009E87849EAC3
:104DD0000049287D04F011FB49EA00602969084375
:104DE000E96840EA01082AE02068806800F0400095
:104DF00020B1287804F0F6FA804602E00020E8703E
:104E000000BF286920B9287D04F0ECFA804604E050
:104E1000287D04F0E7FA804600BF2878000469780E
:104E200040EA0120A9780843E97840EA0140297D59
:104E300040EA016029690843E96840EA010800BFC7
:104E4000CA202168486253202168486200BFA869CF
:104E5000B0F5807F3AD12068806820F480702168A6
:104E600088602068C06800F0800060F4C07021682D
:104E7000C860FEF7D9F9074612E0FEF7D5F9C01B66
:104E8000B0F57A7F0CD900BFFF202168486200BFCF
:104E90000320607700BF0020207700BF032071E768
:104EA0002068C06800F001000028E6D02068C0F843
:104EB0001C802068806840F48070216888602068C9
:104EC000806840F480502168886039E020688068FC
:104ED00020F40070216888602068C06800F08000BD
:104EE00060F420702168C860FEF79EF9074612E062
:104EF000FEF79AF9C01BB0F57A7F0CD900BFFF20EE
:104F00002168486200BF0320607700BF002020773F
:104F100000BF032036E72068C068C0F340000028C7
:104F2000E6D02068C0F820802068806840F40070D7
:104F3000216888602068806840F40050216888609B
:104F40000D48006840F400300B4908600A480830FA
:104F5000006840F4003008490831086000BFFF20B5
:104F60002168486200BF0120607700BF00202077E1
:104F700000BF00BF06E70000000401402DE9F0413A
:104F800004460D461646002700BF207F012802D1A7
:104F90000220BDE8F0810120207700BF0220607769
:104FA0004EB9687800F01000102804D1687800F03D
:104FB000EF000A30687086B9E87804F01EFA03043E
:104FC000687804F01AFA43EA0023A87804F015FA86
:104FD0000343287843EA403711E0687804F002FA86
:104FE0000746A87804F0FEF90746E87800046978D7
:104FF00040EA0120A9780843297840EA413700BFF8
:10500000CA202168486253202168486200BF2046B8
:1050100004F000FA60B100BFFF202168486200BFC1
:105020000420607700BF0020207700BF0120B0E798
:1050300013483840216848602068C06820F080002C
:105040002168C860204600F0B3F860B100BFFF20BF
:105050002168486200BF0420607700BF00202077ED
:1050600000BF012095E700BFFF202168486200BF14
:105070000120607700BF0020207700BF00BF88E7D5
:105080003FFFFF002DE9F04104460D46164600277C
:1050900000BF207F012802D10220BDE8F08101205D
:1050A000207700BF02206077CEB92068806800F0CA
:1050B000400000B102E00020E87000BF287804F052
:1050C0009CF90304687804F098F943EA0023A8786F
:1050D00004F093F90343E87843EA004716E02068B8
:1050E000806800F0400020B1287804F07BF9074682
:1050F00002E00020E87000BF28780004697840EAE8
:105100000120A9780843E97840EA014700BFCA2096
:105110002168486253202168486200BF204604F09D
:1051200079F960B100BFFF202168486200BF042008
:10513000607700BF0020207700BF0120ADE71B484B
:105140003840216808602068806820F48020216849
:105150008860D5E90101084321688968084321680E
:1051600088602068C06820F080002168C860204600
:1051700000F01EF860B100BFFF202168486200BF48
:105180000420607700BF0020207700BF012084E763
:1051900000BFFF202168486200BF0120607700BF88
:1051A0000020207700BF00BF77E700007F7F7F00EF
:1051B00070B5044600252068C06820F0A000216872
:1051C000C860FEF731F8054607E0FEF72DF8401BF2
:1051D000B0F57A7F01D9032070BD2068C06800F067
:1051E00020000028F1D00020F6E710B504460CB9E5
:1051F000012010BD2068006820F040002168086090
:10520000204600F048F80020606584F8510000BF97
:1052100084F8500000BF00BFEBE710B504460CB99E
:10522000012010BD94F8510028B9002084F85000E6
:10523000204600F031F8022084F851002068006810
:1052400020F0400021680860D4E901010843E168CA
:1052500008432169084361690843218B01F4007107
:105260000843E1690843216A0843A16A08432168A9
:1052700008600421A06901EA1040616A08432168BE
:1052800048602168E06A086100206065012084F8B8
:1052900051000020C5E770477047042808D14FF03F
:1052A000E021096941F004014FF0E022116107E0BB
:1052B0004FF0E021096921F004014FF0E022116173
:1052C0007047704770B504462546681EB0F1807F70
:1052D00001D301200FE0681E4FF0E02148610F214B
:1052E0004FF0FF3002F03AFA00204FF0E0218861E1
:1052F00007200861002070BD10B5FFF7E2FF10BD68
:1053000070B5044600250D48844200D106E00B48E4
:105310004430844201D1012500E070BD05EB051247
:10532000064B03EB820202F1400105EB051203EB91
:105330008200012200F0A9F800BFEEE780090020FA
:10534000F8B50446002500262068006800F0010535
:105350002068C06800F4807625B11EB1E06B40F093
:105360000100E06320680068C0F3400520684069E0
:1053700000F0010625B11EB1E06B40F00400E063CF
:1053800020680068C0F3800525B11EB1E06B40F0D5
:105390000200E06320680068C0F3C00525B11EB1BB
:1053A000E06B40F00800E06320680068C0F340153F
:1053B0002068C06800F020061DB116B1204608F034
:1053C00001FC20680068C0F3C0152068C06800F0C8
:1053D00080061DB116B1204608F0FEFD2068006869
:1053E000C0F380152068C06800F040061DB116B1FA
:1053F000204608F0CFFBE06B70B100BF206800686A
:10540000009020684068009000BF00BF012084F831
:1054100039002046FFF774FFF8BD10B504460CB9FB
:10542000012010BDA06900B100E000BF94F8390070
:1054300028B9002084F83800204600F025F8022022
:1054400084F839002068C06820F400502168C860E2
:10545000204608F015FC2068006920F4904021687F
:1054600008612068406920F02A00216848612068AE
:10547000C06840F400502168C8600020E06301204B
:1054800084F839000020CCE7704730B5034600248B
:1054900093F83940012C01D0122C37D101B10AB94F
:1054A000012030BD00BF93F83800012801D102204F
:1054B000F7E7012083F8380000BF99629A85DA8502
:1054C0000020D86393F83900122803D1322083F8E2
:1054D000390002E0222083F8390000BF002083F861
:1054E000380000BF1868C06840F480701D68E8602C
:1054F0001868406940F001001D6868611868C0685C
:1055000040F020001D68E8600020CAE70220C8E7DC
:1055100070B50546194C00261948854201D100BFD7
:1055200007E017484430854202D1164C012600E0BE
:1055300070BD04F1280000F07CFC50B906EB0610A9
:105540000F4A02EB800090F8401004F12800FCF7AD
:10555000E3F9606B10B10120616B884706EB06121E
:10556000074B03EB820202F1400106EB061203EB4C
:1055700082000122FFF789FF00BFD9E7CC0300209A
:1055800080090020040400202DE9F04704460D4660
:10559000164699464FF0000894F83980B8F1010F8B
:1055A00002D0B8F1220F65D105B116B90120BDE8CE
:1055B000F08700BF94F83800012801D10220F6E7F7
:1055C000012084F8380000BF0020E06394F839001F
:1055D000222803D1322084F8390002E0122084F816
:1055E0003900A684E68428E0E08C401EE084A068B0
:1055F000B0F5805F14D14B4600228021204608F090
:1056000023FD08B10320D2E72F463888C0F30800F5
:1056100021684860206908B9AD1C0EE06D1C0CE0E3
:105620004B4600228021204608F00EFD08B10320E1
:10563000BDE715F8010B21684860E08C0028D3DC39
:105640004B4600224021204608F0FEFC08B1032012
:10565000ADE794F83900322803D1222084F83900CC
:1056600002E0012084F8390000BF002084F83800EF
:1056700000BF9CE702209AE730B50346002493F868
:105680003940012C01D0222C2BD101B10AB90120C3
:1056900030BD00BF93F83800012801D10220F7E7A0
:1056A000012083F8380000BF19629A84DA84002050
:1056B000D86393F83900222803D1322083F83900C7
:1056C00002E0122083F8390000BF002083F8380080
:1056D00000BF1868C06840F080001D68E8600020C6
:1056E000D6E70220D4E7000038B504460D4800F0A4
:1056F00097FB48B90B48FCF700F900900122694676
:105700002046FFF7B9FF02E02520FEF7C1F8054863
:105710001C38406B20B103481C38416B002088477F
:1057200038BD0000E8030020014608684069C0F366
:10573000802088B16FF480600A685061042008649A
:1057400000200863202081F83D0000BF002081F880
:105750003C0000BF012070470020FCE72DE9F84322
:1057600004460F4615469946DDE90886206800681C
:1057700040F48060216808602068006840F4807010
:1057800021680860434600224FF001112046009630
:1057900000F02BF910B10320BDE8F88307F0FE00FC
:1057A00021680861334642464149204600F05BF9D2
:1057B00030B1206C042801D10120EDE70320EBE794
:1057C00000BF002000902068406900902068806938
:1057D000009000BF00BF32464146204600F0D0F99D
:1057E00060B1206C042807D12068006840F4007084
:1057F000216808600120CFE70320CDE7B9F1010F50
:1058000003D1E8B22168086119E0C5F307202168D7
:10581000086132464146204600F0B2F960B1206C82
:10582000042807D12068006840F4007021680860EF
:105830000120B1E70320AFE7E8B2216808613246F2
:105840004146204600F09CF960B1206C042807D145
:105850002068006840F400702168086001209BE720
:10586000032099E72068006840F480702168086090
:10587000434600224FF001112046009600F0B5F893
:1058800008B1032088E7F8B240F001002168086100
:10589000334642460649204600F0E5F830B1206C18
:1058A000042801D1012077E7032075E7002073E782
:1058B000020001002DE9F843044688461546994642
:1058C000DDE908672068006840F48070216808609E
:1058D000334600224FF001112046009700F085F872
:1058E00010B10320BDE8F88308F0FE0021680861CC
:1058F0003B4632462649204600F0B5F830B1206CD0
:10590000042801D10120EDE70320EBE700BF0020D0
:10591000009020684069009020688069009000BF76
:1059200000BF3A463146204600F02AF960B1206CAB
:10593000042807D12068006840F4007021680860DE
:105940000120CFE70320CDE7B9F1010F03D1E8B281
:105950002168086119E0C5F30720216808613A460B
:105960003146204600F00CF960B1206C042807D1C4
:105970002068006840F40070216808600120B1E7E9
:105980000320AFE7E8B2216808610020AAE7000021
:105990000200010070B504460D4616461DE0204683
:1059A000FFF7C2FE08B1012070BD681CA8B125B187
:1059B000FDF73AFC801BA8420FD9206C40F0200074
:1059C000206400202063202084F83D0000BF0020D8
:1059D00084F83C0000BF0320E6E720684069C0F37C
:1059E00080000028DBD00020DEE72DE9F0410446EE
:1059F0000D4617461E46DDF8188017E0701CA8B14A
:105A00002EB1FDF711FCA0EB0800B0420ED900202A
:105A10002063202084F83D00002084F83E0000BF71
:105A200084F83C0000BF0320BDE8F081C5F30740C7
:105A300001280AD120684069A9B20840A9B2884269
:105A400001D101200BE0002009E020688069A9B2A3
:105A50000840A9B2884201D1012000E00020B842EC
:105A6000CCD00020E0E72DE9F04104460D46164673
:105A70001F4631E020684069C0F38020C0B1206833
:105A8000006840F40070216808606FF4806021684D
:105A900048610420206400202063202084F83D0019
:105AA00000BF002084F83C0000BF0120BDE8F08169
:105AB000701C88B126B1FDF7B7FBC01BB0420BD9F3
:105AC00000202063202084F83D0000BF002084F8DF
:105AD0003C0000BF0320E9E7C5F3074001280AD1D5
